{
  "_format": "hh-sol-artifact-1",
  "contractName": "Dybot",
  "sourceName": "contracts/dybot.sol",
  "abi": [
    {
      "inputs": [],
      "stateMutability": "nonpayable",
      "type": "constructor"
    },
    {
      "inputs": [],
      "name": "ADDRESSES_PROVIDER",
      "outputs": [
        {
          "internalType": "contract IPoolAddressesProvider",
          "name": "",
          "type": "address"
        }
      ],
      "stateMutability": "view",
      "type": "function"
    },
    {
      "inputs": [],
      "name": "POOL",
      "outputs": [
        {
          "internalType": "contract IPool",
          "name": "",
          "type": "address"
        }
      ],
      "stateMutability": "view",
      "type": "function"
    },
    {
      "inputs": [
        {
          "internalType": "address",
          "name": "asset",
          "type": "address"
        },
        {
          "internalType": "uint256",
          "name": "amount",
          "type": "uint256"
        },
        {
          "internalType": "uint256",
          "name": "premium",
          "type": "uint256"
        },
        {
          "internalType": "address",
          "name": "initiator",
          "type": "address"
        },
        {
          "internalType": "bytes",
          "name": "params",
          "type": "bytes"
        }
      ],
      "name": "executeOperation",
      "outputs": [
        {
          "internalType": "bool",
          "name": "",
          "type": "bool"
        }
      ],
      "stateMutability": "nonpayable",
      "type": "function"
    },
    {
      "inputs": [
        {
          "internalType": "address",
          "name": "_address",
          "type": "address"
        },
        {
          "internalType": "uint256",
          "name": "_amountLoan",
          "type": "uint256"
        }
      ],
      "name": "flashloan",
      "outputs": [],
      "stateMutability": "nonpayable",
      "type": "function"
    },
    {
      "inputs": [
        {
          "internalType": "address",
          "name": "_tokenAddress",
          "type": "address"
        }
      ],
      "name": "getBalance",
      "outputs": [
        {
          "internalType": "uint256",
          "name": "",
          "type": "uint256"
        }
      ],
      "stateMutability": "view",
      "type": "function"
    },
    {
      "inputs": [
        {
          "internalType": "address",
          "name": "_tokenAddress",
          "type": "address"
        }
      ],
      "name": "withdraw",
      "outputs": [],
      "stateMutability": "nonpayable",
      "type": "function"
    },
    {
      "stateMutability": "payable",
      "type": "receive"
    }
  ],
  "bytecode": "0x60c06040523480156200001157600080fd5b5073c911b590248d127ad18546b186cc6b324e99f02c8073ffffffffffffffffffffffffffffffffffffffff1660808173ffffffffffffffffffffffffffffffffffffffff16815250508073ffffffffffffffffffffffffffffffffffffffff1663026b1d5f6040518163ffffffff1660e01b8152600401602060405180830381865afa158015620000a7573d6000803e3d6000fd5b505050506040513d601f19601f82011682018060405250810190620000cd91906200025b565b73ffffffffffffffffffffffffffffffffffffffff1660a08173ffffffffffffffffffffffffffffffffffffffff168152505050737a250d5630b4cf539739df2c5dacb4c659f2488d600160006101000a81548173ffffffffffffffffffffffffffffffffffffffff021916908373ffffffffffffffffffffffffffffffffffffffff160217905550731b02da8cb0d097eb8d57a175b88c7d8b47997506600260006101000a81548173ffffffffffffffffffffffffffffffffffffffff021916908373ffffffffffffffffffffffffffffffffffffffff160217905550336000806101000a81548173ffffffffffffffffffffffffffffffffffffffff021916908373ffffffffffffffffffffffffffffffffffffffff1602179055506200028d565b600080fd5b600073ffffffffffffffffffffffffffffffffffffffff82169050919050565b60006200022382620001f6565b9050919050565b620002358162000216565b81146200024157600080fd5b50565b60008151905062000255816200022a565b92915050565b600060208284031215620002745762000273620001f1565b5b6000620002848482850162000244565b91505092915050565b60805160a051611387620002c16000396000818161067d015281816108a401526108de0152600061018901526113876000f3fe6080604052600436106100595760003560e01c80630542975c146100655780631b11d0ff1461009057806351cff8d9146100cd5780637535d246146100f65780638e5f5f5714610121578063f8b2cb4f1461014a57610060565b3661006057005b600080fd5b34801561007157600080fd5b5061007a610187565b6040516100879190610a77565b60405180910390f35b34801561009c57600080fd5b506100b760048036038101906100b29190610b7f565b6101ab565b6040516100c49190610c34565b60405180910390f35b3480156100d957600080fd5b506100f460048036038101906100ef9190610c4f565b610713565b005b34801561010257600080fd5b5061010b6108a2565b6040516101189190610c9d565b60405180910390f35b34801561012d57600080fd5b5061014860048036038101906101439190610cb8565b6108c6565b005b34801561015657600080fd5b50610171600480360381019061016c9190610c4f565b610975565b60405161017e9190610d07565b60405180910390f35b7f000000000000000000000000000000000000000000000000000000000000000081565b600073b4fbf271143f4fbf7b91a5ded31805e42b2208d673ffffffffffffffffffffffffffffffffffffffff1663095ea7b3737a250d5630b4cf539739df2c5dacb4c659f2488d886040518363ffffffff1660e01b8152600401610210929190610d31565b6020604051808303816000875af115801561022f573d6000803e3d6000fd5b505050506040513d601f19601f820116820180604052508101906102539190610d86565b506000600267ffffffffffffffff81111561027157610270610db3565b5b60405190808252806020026020018201604052801561029f5781602001602082028036833780820191505090505b50905073b4fbf271143f4fbf7b91a5ded31805e42b2208d6816000815181106102cb576102ca610de2565b5b602002602001019073ffffffffffffffffffffffffffffffffffffffff16908173ffffffffffffffffffffffffffffffffffffffff1681525050878160018151811061031a57610319610de2565b5b602002602001019073ffffffffffffffffffffffffffffffffffffffff16908173ffffffffffffffffffffffffffffffffffffffff16815250506000600160009054906101000a900473ffffffffffffffffffffffffffffffffffffffff1673ffffffffffffffffffffffffffffffffffffffff166338ed17398960008530426040518663ffffffff1660e01b81526004016103ba959493929190610f0a565b6000604051808303816000875af11580156103d9573d6000803e3d6000fd5b505050506040513d6000823e3d601f19601f820116820180604052508101906104029190611099565b905060008160018151811061041a57610419610de2565b5b602002602001015190508973ffffffffffffffffffffffffffffffffffffffff1663095ea7b3731b02da8cb0d097eb8d57a175b88c7d8b47997506836040518363ffffffff1660e01b8152600401610473929190610d31565b6020604051808303816000875af1158015610492573d6000803e3d6000fd5b505050506040513d601f19601f820116820180604052508101906104b69190610d86565b5089836000815181106104cc576104cb610de2565b5b602002602001019073ffffffffffffffffffffffffffffffffffffffff16908173ffffffffffffffffffffffffffffffffffffffff168152505073b4fbf271143f4fbf7b91a5ded31805e42b2208d68360018151811061052f5761052e610de2565b5b602002602001019073ffffffffffffffffffffffffffffffffffffffff16908173ffffffffffffffffffffffffffffffffffffffff16815250506000600260009054906101000a900473ffffffffffffffffffffffffffffffffffffffff1673ffffffffffffffffffffffffffffffffffffffff166338ed17398360008733426040518663ffffffff1660e01b81526004016105cf959493929190610f0a565b6000604051808303816000875af11580156105ee573d6000803e3d6000fd5b505050506040513d6000823e3d601f19601f820116820180604052508101906106179190611099565b905060008160018151811061062f5761062e610de2565b5b602002602001015190508a81111561064f57600095505050505050610709565b60008a8c61065d9190611111565b90508c73ffffffffffffffffffffffffffffffffffffffff1663095ea7b37f0000000000000000000000000000000000000000000000000000000000000000836040518363ffffffff1660e01b81526004016106ba929190610d31565b6020604051808303816000875af11580156106d9573d6000803e3d6000fd5b505050506040513d601f19601f820116820180604052508101906106fd9190610d86565b50600196505050505050505b9695505050505050565b60008054906101000a900473ffffffffffffffffffffffffffffffffffffffff1673ffffffffffffffffffffffffffffffffffffffff163373ffffffffffffffffffffffffffffffffffffffff16146107a1576040517f08c379a0000000000000000000000000000000000000000000000000000000008152600401610798906111ea565b60405180910390fd5b60008190508073ffffffffffffffffffffffffffffffffffffffff1663a9059cbb338373ffffffffffffffffffffffffffffffffffffffff166370a08231306040518263ffffffff1660e01b81526004016107fc919061120a565b602060405180830381865afa158015610819573d6000803e3d6000fd5b505050506040513d601f19601f8201168201806040525081019061083d9190611225565b6040518363ffffffff1660e01b815260040161085a929190610d31565b6020604051808303816000875af1158015610879573d6000803e3d6000fd5b505050506040513d601f19601f8201168201806040525081019061089d9190610d86565b505050565b7f000000000000000000000000000000000000000000000000000000000000000081565b600060405180602001604052806000815250905060007f000000000000000000000000000000000000000000000000000000000000000073ffffffffffffffffffffffffffffffffffffffff166342b0b77c30868686866040518663ffffffff1660e01b815260040161093d9594939291906112f7565b600060405180830381600087803b15801561095757600080fd5b505af115801561096b573d6000803e3d6000fd5b5050505050505050565b60008173ffffffffffffffffffffffffffffffffffffffff166370a08231306040518263ffffffff1660e01b81526004016109b0919061120a565b602060405180830381865afa1580156109cd573d6000803e3d6000fd5b505050506040513d601f19601f820116820180604052508101906109f19190611225565b9050919050565b600073ffffffffffffffffffffffffffffffffffffffff82169050919050565b6000819050919050565b6000610a3d610a38610a33846109f8565b610a18565b6109f8565b9050919050565b6000610a4f82610a22565b9050919050565b6000610a6182610a44565b9050919050565b610a7181610a56565b82525050565b6000602082019050610a8c6000830184610a68565b92915050565b6000604051905090565b600080fd5b600080fd5b6000610ab1826109f8565b9050919050565b610ac181610aa6565b8114610acc57600080fd5b50565b600081359050610ade81610ab8565b92915050565b6000819050919050565b610af781610ae4565b8114610b0257600080fd5b50565b600081359050610b1481610aee565b92915050565b600080fd5b600080fd5b600080fd5b60008083601f840112610b3f57610b3e610b1a565b5b8235905067ffffffffffffffff811115610b5c57610b5b610b1f565b5b602083019150836001820283011115610b7857610b77610b24565b5b9250929050565b60008060008060008060a08789031215610b9c57610b9b610a9c565b5b6000610baa89828a01610acf565b9650506020610bbb89828a01610b05565b9550506040610bcc89828a01610b05565b9450506060610bdd89828a01610acf565b935050608087013567ffffffffffffffff811115610bfe57610bfd610aa1565b5b610c0a89828a01610b29565b92509250509295509295509295565b60008115159050919050565b610c2e81610c19565b82525050565b6000602082019050610c496000830184610c25565b92915050565b600060208284031215610c6557610c64610a9c565b5b6000610c7384828501610acf565b91505092915050565b6000610c8782610a44565b9050919050565b610c9781610c7c565b82525050565b6000602082019050610cb26000830184610c8e565b92915050565b60008060408385031215610ccf57610cce610a9c565b5b6000610cdd85828601610acf565b9250506020610cee85828601610b05565b9150509250929050565b610d0181610ae4565b82525050565b6000602082019050610d1c6000830184610cf8565b92915050565b610d2b81610aa6565b82525050565b6000604082019050610d466000830185610d22565b610d536020830184610cf8565b9392505050565b610d6381610c19565b8114610d6e57600080fd5b50565b600081519050610d8081610d5a565b92915050565b600060208284031215610d9c57610d9b610a9c565b5b6000610daa84828501610d71565b91505092915050565b7f4e487b7100000000000000000000000000000000000000000000000000000000600052604160045260246000fd5b7f4e487b7100000000000000000000000000000000000000000000000000000000600052603260045260246000fd5b6000819050919050565b6000610e36610e31610e2c84610e11565b610a18565b610ae4565b9050919050565b610e4681610e1b565b82525050565b600081519050919050565b600082825260208201905092915050565b6000819050602082019050919050565b610e8181610aa6565b82525050565b6000610e938383610e78565b60208301905092915050565b6000602082019050919050565b6000610eb782610e4c565b610ec18185610e57565b9350610ecc83610e68565b8060005b83811015610efd578151610ee48882610e87565b9750610eef83610e9f565b925050600181019050610ed0565b5085935050505092915050565b600060a082019050610f1f6000830188610cf8565b610f2c6020830187610e3d565b8181036040830152610f3e8186610eac565b9050610f4d6060830185610d22565b610f5a6080830184610cf8565b9695505050505050565b6000601f19601f8301169050919050565b610f7e82610f64565b810181811067ffffffffffffffff82111715610f9d57610f9c610db3565b5b80604052505050565b6000610fb0610a92565b9050610fbc8282610f75565b919050565b600067ffffffffffffffff821115610fdc57610fdb610db3565b5b602082029050602081019050919050565b600081519050610ffc81610aee565b92915050565b600061101561101084610fc1565b610fa6565b9050808382526020820190506020840283018581111561103857611037610b24565b5b835b81811015611061578061104d8882610fed565b84526020840193505060208101905061103a565b5050509392505050565b600082601f8301126110805761107f610b1a565b5b8151611090848260208601611002565b91505092915050565b6000602082840312156110af576110ae610a9c565b5b600082015167ffffffffffffffff8111156110cd576110cc610aa1565b5b6110d98482850161106b565b91505092915050565b7f4e487b7100000000000000000000000000000000000000000000000000000000600052601160045260246000fd5b600061111c82610ae4565b915061112783610ae4565b9250827fffffffffffffffffffffffffffffffffffffffffffffffffffffffffffffffff0382111561115c5761115b6110e2565b5b828201905092915050565b600082825260208201905092915050565b7f4f6e6c792074686520636f6e7472616374206f776e65722063616e2063616c6c60008201527f20746869732066756e6374696f6e000000000000000000000000000000000000602082015250565b60006111d4602e83611167565b91506111df82611178565b604082019050919050565b60006020820190508181036000830152611203816111c7565b9050919050565b600060208201905061121f6000830184610d22565b92915050565b60006020828403121561123b5761123a610a9c565b5b600061124984828501610fed565b91505092915050565b600081519050919050565b600082825260208201905092915050565b60005b8381101561128c578082015181840152602081019050611271565b8381111561129b576000848401525b50505050565b60006112ac82611252565b6112b6818561125d565b93506112c681856020860161126e565b6112cf81610f64565b840191505092915050565b600061ffff82169050919050565b6112f1816112da565b82525050565b600060a08201905061130c6000830188610d22565b6113196020830187610d22565b6113266040830186610cf8565b818103606083015261133881856112a1565b905061134760808301846112e8565b969550505050505056fea264697066735822122025fdfb71bdedb2188bb32d895a2c12d9f4c0531cc8ba4c9c906dc1eab5a667a064736f6c634300080a0033",
  "linkReferences": {},
  "deployedLinkReferences": {}
}