{
  "_format": "hh-sol-artifact-1",
  "contractName": "Token",
  "sourceName": "contracts/Token.sol",
  "abi": [
    {
      "inputs": [],
      "stateMutability": "nonpayable",
      "type": "constructor"
    },
    {
      "anonymous": false,
      "inputs": [
        {
          "indexed": true,
          "internalType": "address",
          "name": "owner",
          "type": "address"
        },
        {
          "indexed": true,
          "internalType": "address",
          "name": "spender",
          "type": "address"
        },
        {
          "indexed": false,
          "internalType": "uint256",
          "name": "value",
          "type": "uint256"
        }
      ],
      "name": "Approval",
      "type": "event"
    },
    {
      "anonymous": false,
      "inputs": [
        {
          "indexed": true,
          "internalType": "address",
          "name": "previousOwner",
          "type": "address"
        },
        {
          "indexed": true,
          "internalType": "address",
          "name": "newOwner",
          "type": "address"
        }
      ],
      "name": "OwnershipTransferred",
      "type": "event"
    },
    {
      "anonymous": false,
      "inputs": [
        {
          "indexed": true,
          "internalType": "address",
          "name": "from",
          "type": "address"
        },
        {
          "indexed": true,
          "internalType": "address",
          "name": "to",
          "type": "address"
        },
        {
          "indexed": false,
          "internalType": "uint256",
          "name": "value",
          "type": "uint256"
        }
      ],
      "name": "Transfer",
      "type": "event"
    },
    {
      "inputs": [
        {
          "internalType": "address",
          "name": "wallet",
          "type": "address"
        }
      ],
      "name": "addToLockWhitelist",
      "outputs": [],
      "stateMutability": "nonpayable",
      "type": "function"
    },
    {
      "inputs": [
        {
          "internalType": "address",
          "name": "owner",
          "type": "address"
        },
        {
          "internalType": "address",
          "name": "spender",
          "type": "address"
        }
      ],
      "name": "allowance",
      "outputs": [
        {
          "internalType": "uint256",
          "name": "",
          "type": "uint256"
        }
      ],
      "stateMutability": "view",
      "type": "function"
    },
    {
      "inputs": [
        {
          "internalType": "address",
          "name": "spender",
          "type": "address"
        },
        {
          "internalType": "uint256",
          "name": "amount",
          "type": "uint256"
        }
      ],
      "name": "approve",
      "outputs": [
        {
          "internalType": "bool",
          "name": "",
          "type": "bool"
        }
      ],
      "stateMutability": "nonpayable",
      "type": "function"
    },
    {
      "inputs": [
        {
          "internalType": "address",
          "name": "account",
          "type": "address"
        }
      ],
      "name": "balanceOf",
      "outputs": [
        {
          "internalType": "uint256",
          "name": "",
          "type": "uint256"
        }
      ],
      "stateMutability": "view",
      "type": "function"
    },
    {
      "inputs": [
        {
          "internalType": "uint256",
          "name": "amount",
          "type": "uint256"
        }
      ],
      "name": "burn",
      "outputs": [],
      "stateMutability": "nonpayable",
      "type": "function"
    },
    {
      "inputs": [
        {
          "internalType": "address",
          "name": "account",
          "type": "address"
        },
        {
          "internalType": "uint256",
          "name": "amount",
          "type": "uint256"
        }
      ],
      "name": "burnFrom",
      "outputs": [],
      "stateMutability": "nonpayable",
      "type": "function"
    },
    {
      "inputs": [],
      "name": "decimals",
      "outputs": [
        {
          "internalType": "uint8",
          "name": "",
          "type": "uint8"
        }
      ],
      "stateMutability": "view",
      "type": "function"
    },
    {
      "inputs": [
        {
          "internalType": "address",
          "name": "spender",
          "type": "address"
        },
        {
          "internalType": "uint256",
          "name": "subtractedValue",
          "type": "uint256"
        }
      ],
      "name": "decreaseAllowance",
      "outputs": [
        {
          "internalType": "bool",
          "name": "",
          "type": "bool"
        }
      ],
      "stateMutability": "nonpayable",
      "type": "function"
    },
    {
      "inputs": [
        {
          "internalType": "address",
          "name": "spender",
          "type": "address"
        },
        {
          "internalType": "uint256",
          "name": "addedValue",
          "type": "uint256"
        }
      ],
      "name": "increaseAllowance",
      "outputs": [
        {
          "internalType": "bool",
          "name": "",
          "type": "bool"
        }
      ],
      "stateMutability": "nonpayable",
      "type": "function"
    },
    {
      "inputs": [],
      "name": "lock",
      "outputs": [],
      "stateMutability": "nonpayable",
      "type": "function"
    },
    {
      "inputs": [
        {
          "internalType": "address",
          "name": "owner",
          "type": "address"
        }
      ],
      "name": "lockWhiteList",
      "outputs": [
        {
          "internalType": "bool",
          "name": "",
          "type": "bool"
        }
      ],
      "stateMutability": "view",
      "type": "function"
    },
    {
      "inputs": [],
      "name": "name",
      "outputs": [
        {
          "internalType": "string",
          "name": "",
          "type": "string"
        }
      ],
      "stateMutability": "view",
      "type": "function"
    },
    {
      "inputs": [],
      "name": "owner",
      "outputs": [
        {
          "internalType": "address",
          "name": "",
          "type": "address"
        }
      ],
      "stateMutability": "view",
      "type": "function"
    },
    {
      "inputs": [],
      "name": "release",
      "outputs": [],
      "stateMutability": "nonpayable",
      "type": "function"
    },
    {
      "inputs": [
        {
          "internalType": "address",
          "name": "wallet",
          "type": "address"
        }
      ],
      "name": "removeFromLockWhitelist",
      "outputs": [],
      "stateMutability": "nonpayable",
      "type": "function"
    },
    {
      "inputs": [],
      "name": "renounceOwnership",
      "outputs": [],
      "stateMutability": "nonpayable",
      "type": "function"
    },
    {
      "inputs": [],
      "name": "symbol",
      "outputs": [
        {
          "internalType": "string",
          "name": "",
          "type": "string"
        }
      ],
      "stateMutability": "view",
      "type": "function"
    },
    {
      "inputs": [],
      "name": "totalSupply",
      "outputs": [
        {
          "internalType": "uint256",
          "name": "",
          "type": "uint256"
        }
      ],
      "stateMutability": "view",
      "type": "function"
    },
    {
      "inputs": [
        {
          "internalType": "address",
          "name": "recipient",
          "type": "address"
        },
        {
          "internalType": "uint256",
          "name": "amount",
          "type": "uint256"
        }
      ],
      "name": "transfer",
      "outputs": [
        {
          "internalType": "bool",
          "name": "",
          "type": "bool"
        }
      ],
      "stateMutability": "nonpayable",
      "type": "function"
    },
    {
      "inputs": [
        {
          "internalType": "address",
          "name": "sender",
          "type": "address"
        },
        {
          "internalType": "address",
          "name": "recipient",
          "type": "address"
        },
        {
          "internalType": "uint256",
          "name": "amount",
          "type": "uint256"
        }
      ],
      "name": "transferFrom",
      "outputs": [
        {
          "internalType": "bool",
          "name": "",
          "type": "bool"
        }
      ],
      "stateMutability": "nonpayable",
      "type": "function"
    },
    {
      "inputs": [
        {
          "internalType": "address",
          "name": "newOwner",
          "type": "address"
        }
      ],
      "name": "transferOwnership",
      "outputs": [],
      "stateMutability": "nonpayable",
      "type": "function"
    }
  ],
  "bytecode": "0x60806040526001600860006101000a81548160ff0219169083151502179055503480156200002c57600080fd5b506200004d62000041620001ee60201b60201c565b620001f660201b60201c565b6040518060400160405280600c81526020017f4672657368416972436f696e0000000000000000000000000000000000000000815250600490805190602001906200009a929190620002ba565b506040518060400160405280600381526020017f464143000000000000000000000000000000000000000000000000000000000081525060059080519060200190620000e8929190620002ba565b506012600660006101000a81548160ff021916908360ff16021790555060006b033b2e3c9fd0803ce8000000905080600381905550806001600062000132620001ee60201b60201c565b73ffffffffffffffffffffffffffffffffffffffff1673ffffffffffffffffffffffffffffffffffffffff1681526020019081526020016000208190555062000180620001ee60201b60201c565b73ffffffffffffffffffffffffffffffffffffffff16600073ffffffffffffffffffffffffffffffffffffffff167fddf252ad1be2c89b69c2b068fc378daa952ba7f163c4a11628f55a4df523b3ef83604051620001df919062000385565b60405180910390a35062000407565b600033905090565b60008060009054906101000a900473ffffffffffffffffffffffffffffffffffffffff169050816000806101000a81548173ffffffffffffffffffffffffffffffffffffffff021916908373ffffffffffffffffffffffffffffffffffffffff1602179055508173ffffffffffffffffffffffffffffffffffffffff168173ffffffffffffffffffffffffffffffffffffffff167f8be0079c531659141344cd1fd0a4f28419497f9722a3daafe3b4186f6b6457e060405160405180910390a35050565b828054620002c890620003d1565b90600052602060002090601f016020900481019282620002ec576000855562000338565b82601f106200030757805160ff191683800117855562000338565b8280016001018555821562000338579182015b82811115620003375782518255916020019190600101906200031a565b5b5090506200034791906200034b565b5090565b5b80821115620003665760008160009055506001016200034c565b5090565b6000819050919050565b6200037f816200036a565b82525050565b60006020820190506200039c600083018462000374565b92915050565b7f4e487b7100000000000000000000000000000000000000000000000000000000600052602260045260246000fd5b60006002820490506001821680620003ea57607f821691505b60208210811415620004015762000400620003a2565b5b50919050565b611d9280620004176000396000f3fe608060405234801561001057600080fd5b50600436106101375760003560e01c80637a0adffc116100b8578063a9059cbb1161007c578063a9059cbb1461032a578063c500d2801461035a578063d239786114610376578063dd62ed3e146103a6578063f2fde38b146103d6578063f83d08ba146103f257610137565b80637a0adffc1461029857806386d1a69f146102b45780638da5cb5b146102be57806395d89b41146102dc578063a457c2d7146102fa57610137565b806339509351116100ff57806339509351146101f657806342966c681461022657806370a0823114610242578063715018a61461027257806379cc67901461027c57610137565b806306fdde031461013c578063095ea7b31461015a57806318160ddd1461018a57806323b872dd146101a8578063313ce567146101d8575b600080fd5b6101446103fc565b604051610151919061149c565b60405180910390f35b610174600480360381019061016f9190611557565b61048e565b60405161018191906115b2565b60405180910390f35b6101926104ac565b60405161019f91906115dc565b60405180910390f35b6101c260048036038101906101bd91906115f7565b6104b6565b6040516101cf91906115b2565b60405180910390f35b6101e061058f565b6040516101ed9190611666565b60405180910390f35b610210600480360381019061020b9190611557565b6105a6565b60405161021d91906115b2565b60405180910390f35b610240600480360381019061023b9190611681565b610659565b005b61025c600480360381019061025791906116ae565b61066d565b60405161026991906115dc565b60405180910390f35b61027a6106b6565b005b61029660048036038101906102919190611557565b6106ca565b005b6102b260048036038101906102ad91906116ae565b61072c565b005b6102bc61078f565b005b6102c66107b4565b6040516102d391906116ea565b60405180910390f35b6102e46107dd565b6040516102f1919061149c565b60405180910390f35b610314600480360381019061030f9190611557565b61086f565b60405161032191906115b2565b60405180910390f35b610344600480360381019061033f9190611557565b61093c565b60405161035191906115b2565b60405180910390f35b610374600480360381019061036f91906116ae565b61095a565b005b610390600480360381019061038b91906116ae565b6109bd565b60405161039d91906115b2565b60405180910390f35b6103c060048036038101906103bb9190611705565b610a13565b6040516103cd91906115dc565b60405180910390f35b6103f060048036038101906103eb91906116ae565b610a9a565b005b6103fa610b1e565b005b60606004805461040b90611774565b80601f016020809104026020016040519081016040528092919081815260200182805461043790611774565b80156104845780601f1061045957610100808354040283529160200191610484565b820191906000526020600020905b81548152906001019060200180831161046757829003601f168201915b5050505050905090565b60006104a261049b610b43565b8484610b4b565b6001905092915050565b6000600354905090565b60006104c3848484610d16565b610584846104cf610b43565b61057f85604051806060016040528060288152602001611cec60289139600260008b73ffffffffffffffffffffffffffffffffffffffff1673ffffffffffffffffffffffffffffffffffffffff1681526020019081526020016000206000610535610b43565b73ffffffffffffffffffffffffffffffffffffffff1673ffffffffffffffffffffffffffffffffffffffff1681526020019081526020016000205461109c9092919063ffffffff16565b610b4b565b600190509392505050565b6000600660009054906101000a900460ff16905090565b600061064f6105b3610b43565b8461064a85600260006105c4610b43565b73ffffffffffffffffffffffffffffffffffffffff1673ffffffffffffffffffffffffffffffffffffffff16815260200190815260200160002060008973ffffffffffffffffffffffffffffffffffffffff1673ffffffffffffffffffffffffffffffffffffffff168152602001908152602001600020546110f190919063ffffffff16565b610b4b565b6001905092915050565b61066a610664610b43565b82611107565b50565b6000600160008373ffffffffffffffffffffffffffffffffffffffff1673ffffffffffffffffffffffffffffffffffffffff168152602001908152602001600020549050919050565b6106be6112ab565b6106c86000611329565b565b600061070982604051806060016040528060248152602001611d14602491396106fa866106f5610b43565b610a13565b61109c9092919063ffffffff16565b905061071d83610717610b43565b83610b4b565b6107278383611107565b505050565b6107346112ab565b6001600760008373ffffffffffffffffffffffffffffffffffffffff1673ffffffffffffffffffffffffffffffffffffffff16815260200190815260200160002060006101000a81548160ff02191690831515021790555050565b6107976112ab565b6000600860006101000a81548160ff021916908315150217905550565b60008060009054906101000a900473ffffffffffffffffffffffffffffffffffffffff16905090565b6060600580546107ec90611774565b80601f016020809104026020016040519081016040528092919081815260200182805461081890611774565b80156108655780601f1061083a57610100808354040283529160200191610865565b820191906000526020600020905b81548152906001019060200180831161084857829003601f168201915b5050505050905090565b600061093261087c610b43565b8461092d85604051806060016040528060258152602001611d3860259139600260006108a6610b43565b73ffffffffffffffffffffffffffffffffffffffff1673ffffffffffffffffffffffffffffffffffffffff16815260200190815260200160002060008a73ffffffffffffffffffffffffffffffffffffffff1673ffffffffffffffffffffffffffffffffffffffff1681526020019081526020016000205461109c9092919063ffffffff16565b610b4b565b6001905092915050565b6000610950610949610b43565b8484610d16565b6001905092915050565b6109626112ab565b6000600760008373ffffffffffffffffffffffffffffffffffffffff1673ffffffffffffffffffffffffffffffffffffffff16815260200190815260200160002060006101000a81548160ff02191690831515021790555050565b6000600760008373ffffffffffffffffffffffffffffffffffffffff1673ffffffffffffffffffffffffffffffffffffffff16815260200190815260200160002060009054906101000a900460ff169050919050565b6000600260008473ffffffffffffffffffffffffffffffffffffffff1673ffffffffffffffffffffffffffffffffffffffff16815260200190815260200160002060008373ffffffffffffffffffffffffffffffffffffffff1673ffffffffffffffffffffffffffffffffffffffff16815260200190815260200160002054905092915050565b610aa26112ab565b600073ffffffffffffffffffffffffffffffffffffffff168173ffffffffffffffffffffffffffffffffffffffff161415610b12576040517f08c379a0000000000000000000000000000000000000000000000000000000008152600401610b0990611818565b60405180910390fd5b610b1b81611329565b50565b610b266112ab565b6001600860006101000a81548160ff021916908315150217905550565b600033905090565b600073ffffffffffffffffffffffffffffffffffffffff168373ffffffffffffffffffffffffffffffffffffffff161415610bbb576040517f08c379a0000000000000000000000000000000000000000000000000000000008152600401610bb2906118aa565b60405180910390fd5b600073ffffffffffffffffffffffffffffffffffffffff168273ffffffffffffffffffffffffffffffffffffffff161415610c2b576040517f08c379a0000000000000000000000000000000000000000000000000000000008152600401610c229061193c565b60405180910390fd5b80600260008573ffffffffffffffffffffffffffffffffffffffff1673ffffffffffffffffffffffffffffffffffffffff16815260200190815260200160002060008473ffffffffffffffffffffffffffffffffffffffff1673ffffffffffffffffffffffffffffffffffffffff168152602001908152602001600020819055508173ffffffffffffffffffffffffffffffffffffffff168373ffffffffffffffffffffffffffffffffffffffff167f8c5be1e5ebec7d5bd14f71427d1e84f3dd0314c0f7b2291e5b200ac8c7c3b92583604051610d0991906115dc565b60405180910390a3505050565b600073ffffffffffffffffffffffffffffffffffffffff168373ffffffffffffffffffffffffffffffffffffffff161415610d86576040517f08c379a0000000000000000000000000000000000000000000000000000000008152600401610d7d906119ce565b60405180910390fd5b600073ffffffffffffffffffffffffffffffffffffffff168273ffffffffffffffffffffffffffffffffffffffff161415610df6576040517f08c379a0000000000000000000000000000000000000000000000000000000008152600401610ded90611a60565b60405180910390fd5b600860009054906101000a900460ff161580610e5b5750600760008473ffffffffffffffffffffffffffffffffffffffff1673ffffffffffffffffffffffffffffffffffffffff16815260200190815260200160002060009054906101000a900460ff165b80610eaf5750600760008373ffffffffffffffffffffffffffffffffffffffff1673ffffffffffffffffffffffffffffffffffffffff16815260200190815260200160002060009054906101000a900460ff165b610eee576040517f08c379a0000000000000000000000000000000000000000000000000000000008152600401610ee590611acc565b60405180910390fd5b610f5a81604051806060016040528060268152602001611cc660269139600160008773ffffffffffffffffffffffffffffffffffffffff1673ffffffffffffffffffffffffffffffffffffffff1681526020019081526020016000205461109c9092919063ffffffff16565b600160008573ffffffffffffffffffffffffffffffffffffffff1673ffffffffffffffffffffffffffffffffffffffff16815260200190815260200160002081905550610fef81600160008573ffffffffffffffffffffffffffffffffffffffff1673ffffffffffffffffffffffffffffffffffffffff168152602001908152602001600020546110f190919063ffffffff16565b600160008473ffffffffffffffffffffffffffffffffffffffff1673ffffffffffffffffffffffffffffffffffffffff168152602001908152602001600020819055508173ffffffffffffffffffffffffffffffffffffffff168373ffffffffffffffffffffffffffffffffffffffff167fddf252ad1be2c89b69c2b068fc378daa952ba7f163c4a11628f55a4df523b3ef8360405161108f91906115dc565b60405180910390a3505050565b60008383111582906110e4576040517f08c379a00000000000000000000000000000000000000000000000000000000081526004016110db919061149c565b60405180910390fd5b5082840390509392505050565b600081836110ff9190611b1b565b905092915050565b600073ffffffffffffffffffffffffffffffffffffffff168273ffffffffffffffffffffffffffffffffffffffff161415611177576040517f08c379a000000000000000000000000000000000000000000000000000000000815260040161116e90611be3565b60405180910390fd5b6111e381604051806060016040528060228152602001611ca460229139600160008673ffffffffffffffffffffffffffffffffffffffff1673ffffffffffffffffffffffffffffffffffffffff1681526020019081526020016000205461109c9092919063ffffffff16565b600160008473ffffffffffffffffffffffffffffffffffffffff1673ffffffffffffffffffffffffffffffffffffffff1681526020019081526020016000208190555061123b816003546113ed90919063ffffffff16565b600381905550600073ffffffffffffffffffffffffffffffffffffffff168273ffffffffffffffffffffffffffffffffffffffff167fddf252ad1be2c89b69c2b068fc378daa952ba7f163c4a11628f55a4df523b3ef8360405161129f91906115dc565b60405180910390a35050565b6112b3610b43565b73ffffffffffffffffffffffffffffffffffffffff166112d16107b4565b73ffffffffffffffffffffffffffffffffffffffff1614611327576040517f08c379a000000000000000000000000000000000000000000000000000000000815260040161131e90611c4f565b60405180910390fd5b565b60008060009054906101000a900473ffffffffffffffffffffffffffffffffffffffff169050816000806101000a81548173ffffffffffffffffffffffffffffffffffffffff021916908373ffffffffffffffffffffffffffffffffffffffff1602179055508173ffffffffffffffffffffffffffffffffffffffff168173ffffffffffffffffffffffffffffffffffffffff167f8be0079c531659141344cd1fd0a4f28419497f9722a3daafe3b4186f6b6457e060405160405180910390a35050565b600081836113fb9190611c6f565b905092915050565b600081519050919050565b600082825260208201905092915050565b60005b8381101561143d578082015181840152602081019050611422565b8381111561144c576000848401525b50505050565b6000601f19601f8301169050919050565b600061146e82611403565b611478818561140e565b935061148881856020860161141f565b61149181611452565b840191505092915050565b600060208201905081810360008301526114b68184611463565b905092915050565b600080fd5b600073ffffffffffffffffffffffffffffffffffffffff82169050919050565b60006114ee826114c3565b9050919050565b6114fe816114e3565b811461150957600080fd5b50565b60008135905061151b816114f5565b92915050565b6000819050919050565b61153481611521565b811461153f57600080fd5b50565b6000813590506115518161152b565b92915050565b6000806040838503121561156e5761156d6114be565b5b600061157c8582860161150c565b925050602061158d85828601611542565b9150509250929050565b60008115159050919050565b6115ac81611597565b82525050565b60006020820190506115c760008301846115a3565b92915050565b6115d681611521565b82525050565b60006020820190506115f160008301846115cd565b92915050565b6000806000606084860312156116105761160f6114be565b5b600061161e8682870161150c565b935050602061162f8682870161150c565b925050604061164086828701611542565b9150509250925092565b600060ff82169050919050565b6116608161164a565b82525050565b600060208201905061167b6000830184611657565b92915050565b600060208284031215611697576116966114be565b5b60006116a584828501611542565b91505092915050565b6000602082840312156116c4576116c36114be565b5b60006116d28482850161150c565b91505092915050565b6116e4816114e3565b82525050565b60006020820190506116ff60008301846116db565b92915050565b6000806040838503121561171c5761171b6114be565b5b600061172a8582860161150c565b925050602061173b8582860161150c565b9150509250929050565b7f4e487b7100000000000000000000000000000000000000000000000000000000600052602260045260246000fd5b6000600282049050600182168061178c57607f821691505b602082108114156117a05761179f611745565b5b50919050565b7f4f776e61626c653a206e6577206f776e657220697320746865207a65726f206160008201527f6464726573730000000000000000000000000000000000000000000000000000602082015250565b600061180260268361140e565b915061180d826117a6565b604082019050919050565b60006020820190508181036000830152611831816117f5565b9050919050565b7f45524332303a20617070726f76652066726f6d20746865207a65726f2061646460008201527f7265737300000000000000000000000000000000000000000000000000000000602082015250565b600061189460248361140e565b915061189f82611838565b604082019050919050565b600060208201905081810360008301526118c381611887565b9050919050565b7f45524332303a20617070726f766520746f20746865207a65726f20616464726560008201527f7373000000000000000000000000000000000000000000000000000000000000602082015250565b600061192660228361140e565b9150611931826118ca565b604082019050919050565b6000602082019050818103600083015261195581611919565b9050919050565b7f45524332303a207472616e736665722066726f6d20746865207a65726f20616460008201527f6472657373000000000000000000000000000000000000000000000000000000602082015250565b60006119b860258361140e565b91506119c38261195c565b604082019050919050565b600060208201905081810360008301526119e7816119ab565b9050919050565b7f45524332303a207472616e7366657220746f20746865207a65726f206164647260008201527f6573730000000000000000000000000000000000000000000000000000000000602082015250565b6000611a4a60238361140e565b9150611a55826119ee565b604082019050919050565b60006020820190508181036000830152611a7981611a3d565b9050919050565b7f45524332303a204e6f742072656c656173652079657400000000000000000000600082015250565b6000611ab660168361140e565b9150611ac182611a80565b602082019050919050565b60006020820190508181036000830152611ae581611aa9565b9050919050565b7f4e487b7100000000000000000000000000000000000000000000000000000000600052601160045260246000fd5b6000611b2682611521565b9150611b3183611521565b9250827fffffffffffffffffffffffffffffffffffffffffffffffffffffffffffffffff03821115611b6657611b65611aec565b5b828201905092915050565b7f45524332303a206275726e2066726f6d20746865207a65726f2061646472657360008201527f7300000000000000000000000000000000000000000000000000000000000000602082015250565b6000611bcd60218361140e565b9150611bd882611b71565b604082019050919050565b60006020820190508181036000830152611bfc81611bc0565b9050919050565b7f4f776e61626c653a2063616c6c6572206973206e6f7420746865206f776e6572600082015250565b6000611c3960208361140e565b9150611c4482611c03565b602082019050919050565b60006020820190508181036000830152611c6881611c2c565b9050919050565b6000611c7a82611521565b9150611c8583611521565b925082821015611c9857611c97611aec565b5b82820390509291505056fe45524332303a206275726e20616d6f756e7420657863656564732062616c616e636545524332303a207472616e7366657220616d6f756e7420657863656564732062616c616e636545524332303a207472616e7366657220616d6f756e74206578636565647320616c6c6f77616e636545524332303a206275726e20616d6f756e74206578636565647320616c6c6f77616e636545524332303a2064656372656173656420616c6c6f77616e63652062656c6f77207a65726fa2646970667358221220fcba35171fd4b8373309ccd48bc7da7025f19c9f8c6b79e2b1ec7bd709c1fdcd64736f6c634300080a0033",
  "linkReferences": {},
  "deployedLinkReferences": {}
}